{
  "contractName": "AuctionRepository",
  "abi": [
    {
      "constant": true,
      "inputs": [
        {
          "name": "interfaceId",
          "type": "bytes4"
        }
      ],
      "name": "supportsInterface",
      "outputs": [
        {
          "name": "",
          "type": "bool"
        }
      ],
      "payable": false,
      "stateMutability": "view",
      "type": "function",
      "signature": "0x01ffc9a7"
    },
    {
      "constant": true,
      "inputs": [],
      "name": "name",
      "outputs": [
        {
          "name": "",
          "type": "string"
        }
      ],
      "payable": false,
      "stateMutability": "view",
      "type": "function",
      "signature": "0x06fdde03"
    },
    {
      "constant": true,
      "inputs": [
        {
          "name": "tokenId",
          "type": "uint256"
        }
      ],
      "name": "getApproved",
      "outputs": [
        {
          "name": "",
          "type": "address"
        }
      ],
      "payable": false,
      "stateMutability": "view",
      "type": "function",
      "signature": "0x081812fc"
    },
    {
      "constant": false,
      "inputs": [
        {
          "name": "to",
          "type": "address"
        },
        {
          "name": "tokenId",
          "type": "uint256"
        }
      ],
      "name": "approve",
      "outputs": [],
      "payable": false,
      "stateMutability": "nonpayable",
      "type": "function",
      "signature": "0x095ea7b3"
    },
    {
      "constant": false,
      "inputs": [
        {
          "name": "from",
          "type": "address"
        },
        {
          "name": "to",
          "type": "address"
        },
        {
          "name": "tokenId",
          "type": "uint256"
        }
      ],
      "name": "transferFrom",
      "outputs": [],
      "payable": false,
      "stateMutability": "nonpayable",
      "type": "function",
      "signature": "0x23b872dd"
    },
    {
      "constant": false,
      "inputs": [
        {
          "name": "from",
          "type": "address"
        },
        {
          "name": "to",
          "type": "address"
        },
        {
          "name": "tokenId",
          "type": "uint256"
        }
      ],
      "name": "safeTransferFrom",
      "outputs": [],
      "payable": false,
      "stateMutability": "nonpayable",
      "type": "function",
      "signature": "0x42842e0e"
    },
    {
      "constant": true,
      "inputs": [
        {
          "name": "",
          "type": "uint256"
        }
      ],
      "name": "auctions",
      "outputs": [
        {
          "name": "name",
          "type": "string"
        },
        {
          "name": "blockDeadline",
          "type": "uint256"
        },
        {
          "name": "startPrice",
          "type": "uint256"
        },
        {
          "name": "metadata",
          "type": "string"
        },
        {
          "name": "deedId",
          "type": "uint256"
        },
        {
          "name": "owner",
          "type": "address"
        },
        {
          "name": "deedRepositoryAddress",
          "type": "address"
        },
        {
          "name": "active",
          "type": "bool"
        },
        {
          "name": "finalized",
          "type": "bool"
        }
      ],
      "payable": false,
      "stateMutability": "view",
      "type": "function",
      "signature": "0x571a26a0"
    },
    {
      "constant": true,
      "inputs": [
        {
          "name": "tokenId",
          "type": "uint256"
        }
      ],
      "name": "ownerOf",
      "outputs": [
        {
          "name": "",
          "type": "address"
        }
      ],
      "payable": false,
      "stateMutability": "view",
      "type": "function",
      "signature": "0x6352211e"
    },
    {
      "constant": true,
      "inputs": [
        {
          "name": "owner",
          "type": "address"
        }
      ],
      "name": "balanceOf",
      "outputs": [
        {
          "name": "",
          "type": "uint256"
        }
      ],
      "payable": false,
      "stateMutability": "view",
      "type": "function",
      "signature": "0x70a08231"
    },
    {
      "constant": true,
      "inputs": [],
      "name": "symbol",
      "outputs": [
        {
          "name": "",
          "type": "string"
        }
      ],
      "payable": false,
      "stateMutability": "view",
      "type": "function",
      "signature": "0x95d89b41"
    },
    {
      "constant": false,
      "inputs": [
        {
          "name": "to",
          "type": "address"
        },
        {
          "name": "approved",
          "type": "bool"
        }
      ],
      "name": "setApprovalForAll",
      "outputs": [],
      "payable": false,
      "stateMutability": "nonpayable",
      "type": "function",
      "signature": "0xa22cb465"
    },
    {
      "constant": false,
      "inputs": [
        {
          "name": "from",
          "type": "address"
        },
        {
          "name": "to",
          "type": "address"
        },
        {
          "name": "tokenId",
          "type": "uint256"
        },
        {
          "name": "_data",
          "type": "bytes"
        }
      ],
      "name": "safeTransferFrom",
      "outputs": [],
      "payable": false,
      "stateMutability": "nonpayable",
      "type": "function",
      "signature": "0xb88d4fde"
    },
    {
      "constant": true,
      "inputs": [
        {
          "name": "owner",
          "type": "address"
        },
        {
          "name": "operator",
          "type": "address"
        }
      ],
      "name": "isApprovedForAll",
      "outputs": [
        {
          "name": "",
          "type": "bool"
        }
      ],
      "payable": false,
      "stateMutability": "view",
      "type": "function",
      "signature": "0xe985e9c5"
    },
    {
      "inputs": [
        {
          "name": "_name",
          "type": "string"
        },
        {
          "name": "_symbol",
          "type": "string"
        }
      ],
      "payable": false,
      "stateMutability": "nonpayable",
      "type": "constructor",
      "signature": "constructor"
    },
    {
      "payable": false,
      "stateMutability": "nonpayable",
      "type": "fallback"
    },
    {
      "anonymous": false,
      "inputs": [
        {
          "indexed": false,
          "name": "_from",
          "type": "address"
        },
        {
          "indexed": false,
          "name": "_auctionId",
          "type": "uint256"
        }
      ],
      "name": "BidSuccess",
      "type": "event",
      "signature": "0x5762e6a7d331cd17a1761e94de3ea3b85e90ee6cdd9d1204e361cc650689d463"
    },
    {
      "anonymous": false,
      "inputs": [
        {
          "indexed": false,
          "name": "_owner",
          "type": "address"
        },
        {
          "indexed": false,
          "name": "_auctionId",
          "type": "uint256"
        }
      ],
      "name": "AuctionCreated",
      "type": "event",
      "signature": "0x3249a06bd478adf780bb7930214ad005e9cfa517d63221c0b77f27199d1a58b3"
    },
    {
      "anonymous": false,
      "inputs": [
        {
          "indexed": false,
          "name": "_owner",
          "type": "address"
        },
        {
          "indexed": false,
          "name": "_auctionId",
          "type": "uint256"
        }
      ],
      "name": "AuctionCanceled",
      "type": "event",
      "signature": "0x39e6c898ce035bbacd9ba4f9753534f8c9f976e0ff70be83cfe887f235afa1d3"
    },
    {
      "anonymous": false,
      "inputs": [
        {
          "indexed": false,
          "name": "_owner",
          "type": "address"
        },
        {
          "indexed": false,
          "name": "_auctionId",
          "type": "uint256"
        }
      ],
      "name": "AuctionFinalized",
      "type": "event",
      "signature": "0x357afab190ee87fe0ef1c717f2728d2904d9e415a069d99f4d9382873cb3279d"
    },
    {
      "anonymous": false,
      "inputs": [
        {
          "indexed": true,
          "name": "from",
          "type": "address"
        },
        {
          "indexed": true,
          "name": "to",
          "type": "address"
        },
        {
          "indexed": true,
          "name": "tokenId",
          "type": "uint256"
        }
      ],
      "name": "Transfer",
      "type": "event",
      "signature": "0xddf252ad1be2c89b69c2b068fc378daa952ba7f163c4a11628f55a4df523b3ef"
    },
    {
      "anonymous": false,
      "inputs": [
        {
          "indexed": true,
          "name": "owner",
          "type": "address"
        },
        {
          "indexed": true,
          "name": "approved",
          "type": "address"
        },
        {
          "indexed": true,
          "name": "tokenId",
          "type": "uint256"
        }
      ],
      "name": "Approval",
      "type": "event",
      "signature": "0x8c5be1e5ebec7d5bd14f71427d1e84f3dd0314c0f7b2291e5b200ac8c7c3b925"
    },
    {
      "anonymous": false,
      "inputs": [
        {
          "indexed": true,
          "name": "owner",
          "type": "address"
        },
        {
          "indexed": true,
          "name": "operator",
          "type": "address"
        },
        {
          "indexed": false,
          "name": "approved",
          "type": "bool"
        }
      ],
      "name": "ApprovalForAll",
      "type": "event",
      "signature": "0x17307eab39ab6107e8899845ad3d59bd9653f200f220920489ca2b5937696c31"
    },
    {
      "constant": true,
      "inputs": [],
      "name": "getCount",
      "outputs": [
        {
          "name": "",
          "type": "uint256"
        }
      ],
      "payable": false,
      "stateMutability": "view",
      "type": "function",
      "signature": "0xa87d942c"
    },
    {
      "constant": true,
      "inputs": [
        {
          "name": "_auctionId",
          "type": "uint256"
        }
      ],
      "name": "getBidsCount",
      "outputs": [
        {
          "name": "",
          "type": "uint256"
        }
      ],
      "payable": false,
      "stateMutability": "view",
      "type": "function",
      "signature": "0x4008f9c0"
    },
    {
      "constant": true,
      "inputs": [
        {
          "name": "_owner",
          "type": "address"
        }
      ],
      "name": "getActionsOf",
      "outputs": [
        {
          "name": "",
          "type": "uint256[]"
        }
      ],
      "payable": false,
      "stateMutability": "view",
      "type": "function",
      "signature": "0xfe191bdc"
    },
    {
      "constant": true,
      "inputs": [
        {
          "name": "_auctionId",
          "type": "uint256"
        }
      ],
      "name": "getCurrentBid",
      "outputs": [
        {
          "name": "",
          "type": "uint256"
        },
        {
          "name": "",
          "type": "address"
        }
      ],
      "payable": false,
      "stateMutability": "view",
      "type": "function",
      "signature": "0xda4e364f"
    },
    {
      "constant": false,
      "inputs": [
        {
          "name": "_owner",
          "type": "address"
        }
      ],
      "name": "getAuctionsCountOfOwner",
      "outputs": [
        {
          "name": "",
          "type": "uint256"
        }
      ],
      "payable": false,
      "stateMutability": "nonpayable",
      "type": "function",
      "signature": "0xd56aa558"
    },
    {
      "constant": true,
      "inputs": [
        {
          "name": "_auctionId",
          "type": "uint256"
        }
      ],
      "name": "getAuctionById",
      "outputs": [
        {
          "name": "name",
          "type": "string"
        },
        {
          "name": "blockDeadline",
          "type": "uint256"
        },
        {
          "name": "startPrice",
          "type": "uint256"
        },
        {
          "name": "metadata",
          "type": "string"
        },
        {
          "name": "deedId",
          "type": "uint256"
        },
        {
          "name": "deedRepositoryAddress",
          "type": "address"
        },
        {
          "name": "owner",
          "type": "address"
        },
        {
          "name": "active",
          "type": "bool"
        },
        {
          "name": "finalized",
          "type": "bool"
        }
      ],
      "payable": false,
      "stateMutability": "view",
      "type": "function",
      "signature": "0x18111ada"
    },
    {
      "constant": false,
      "inputs": [
        {
          "name": "_deedRepositoryAddress",
          "type": "address"
        },
        {
          "name": "_deedId",
          "type": "uint256"
        },
        {
          "name": "_auctionTitle",
          "type": "string"
        },
        {
          "name": "_metadata",
          "type": "string"
        },
        {
          "name": "_startPrice",
          "type": "uint256"
        },
        {
          "name": "_blockDeadline",
          "type": "uint256"
        }
      ],
      "name": "createAuction",
      "outputs": [
        {
          "name": "",
          "type": "bool"
        }
      ],
      "payable": false,
      "stateMutability": "nonpayable",
      "type": "function",
      "signature": "0xe1b96581"
    },
    {
      "constant": false,
      "inputs": [
        {
          "name": "_auctionId",
          "type": "uint256"
        }
      ],
      "name": "cancelAuction",
      "outputs": [],
      "payable": false,
      "stateMutability": "nonpayable",
      "type": "function",
      "signature": "0x96b5a755"
    },
    {
      "constant": false,
      "inputs": [
        {
          "name": "_auctionId",
          "type": "uint256"
        }
      ],
      "name": "finalizeAuction",
      "outputs": [],
      "payable": false,
      "stateMutability": "nonpayable",
      "type": "function",
      "signature": "0xe8083863"
    },
    {
      "constant": false,
      "inputs": [
        {
          "name": "_auctionId",
          "type": "uint256"
        }
      ],
      "name": "bidOnAuction",
      "outputs": [],
      "payable": true,
      "stateMutability": "payable",
      "type": "function",
      "signature": "0x26b7aeea"
    }
  ],
  "bytecode": "0x60806040523480156200001157600080fd5b5060405162003b3538038062003b35833981018060405260408110156200003757600080fd5b8101908080516401000000008111156200005057600080fd5b828101905060208101848111156200006757600080fd5b81518560018202830111640100000000821117156200008557600080fd5b50509291906020018051640100000000811115620000a257600080fd5b82810190506020810184811115620000b957600080fd5b8151856001820283011164010000000082111715620000d757600080fd5b50509291905050506200011c6301ffc9a77c01000000000000000000000000000000000000000000000000000000000262000193640100000000026401000000009004565b620001596380ac58cd7c01000000000000000000000000000000000000000000000000000000000262000193640100000000026401000000009004565b81600590805190602001906200017192919062000251565b5080600690805190602001906200018a92919062000251565b50505062000300565b63ffffffff7c010000000000000000000000000000000000000000000000000000000002817bffffffffffffffffffffffffffffffffffffffffffffffffffffffff191614151515620001e557600080fd5b6001600080837bffffffffffffffffffffffffffffffffffffffffffffffffffffffff19167bffffffffffffffffffffffffffffffffffffffffffffffffffffffff1916815260200190815260200160002060006101000a81548160ff02191690831515021790555050565b828054600181600116156101000203166002900490600052602060002090601f016020900481019282601f106200029457805160ff1916838001178555620002c5565b82800160010185558215620002c5579182015b82811115620002c4578251825591602001919060010190620002a7565b5b509050620002d49190620002d8565b5090565b620002fd91905b80821115620002f9576000816000905550600101620002df565b5090565b90565b61382580620003106000396000f3fe608060405260043610610133576000357c0100000000000000000000000000000000000000000000000000000000900463ffffffff16806301ffc9a71461014557806306fdde03146101b7578063081812fc14610247578063095ea7b3146102c257806318111ada1461031d57806323b872dd146104ce57806326b7aeea146105495780634008f9c01461057757806342842e0e146105c6578063571a26a0146106415780636352211e146107f257806370a082311461086d57806395d89b41146108d257806396b5a75514610962578063a22cb4651461099d578063a87d942c146109fa578063b88d4fde14610a25578063d56aa55814610b37578063da4e364f14610b9c578063e1b9658114610c1e578063e808386314610dd3578063e985e9c514610e0e578063fe191bdc14610e97575b34801561013f57600080fd5b50600080fd5b34801561015157600080fd5b5061019d6004803603602081101561016857600080fd5b8101908080357bffffffffffffffffffffffffffffffffffffffffffffffffffffffff19169060200190929190505050610f3d565b604051808215151515815260200191505060405180910390f35b3480156101c357600080fd5b506101cc610fa4565b6040518080602001828103825283818151815260200191508051906020019080838360005b8381101561020c5780820151818401526020810190506101f1565b50505050905090810190601f1680156102395780820380516001836020036101000a031916815260200191505b509250505060405180910390f35b34801561025357600080fd5b506102806004803603602081101561026a57600080fd5b8101908080359060200190929190505050611042565b604051808273ffffffffffffffffffffffffffffffffffffffff1673ffffffffffffffffffffffffffffffffffffffff16815260200191505060405180910390f35b3480156102ce57600080fd5b5061031b600480360360408110156102e557600080fd5b81019080803573ffffffffffffffffffffffffffffffffffffffff16906020019092919080359060200190929190505050611093565b005b34801561032957600080fd5b506103566004803603602081101561034057600080fd5b81019080803590602001909291905050506111d8565b60405180806020018a8152602001898152602001806020018881526020018773ffffffffffffffffffffffffffffffffffffffff1673ffffffffffffffffffffffffffffffffffffffff1681526020018673ffffffffffffffffffffffffffffffffffffffff1673ffffffffffffffffffffffffffffffffffffffff168152602001851515151581526020018415151515815260200183810383528c818151815260200191508051906020019080838360005b83811015610424578082015181840152602081019050610409565b50505050905090810190601f1680156104515780820380516001836020036101000a031916815260200191505b50838103825289818151815260200191508051906020019080838360005b8381101561048a57808201518184015260208101905061046f565b50505050905090810190601f1680156104b75780820380516001836020036101000a031916815260200191505b509b50505050505050505050505060405180910390f35b3480156104da57600080fd5b50610547600480360360608110156104f157600080fd5b81019080803573ffffffffffffffffffffffffffffffffffffffff169060200190929190803573ffffffffffffffffffffffffffffffffffffffff169060200190929190803590602001909291905050506114b3565b005b6105756004803603602081101561055f57600080fd5b81019080803590602001909291905050506114d8565b005b34801561058357600080fd5b506105b06004803603602081101561059a57600080fd5b8101908080359060200190929190505050611a2e565b6040518082815260200191505060405180910390f35b3480156105d257600080fd5b5061063f600480360360608110156105e957600080fd5b81019080803573ffffffffffffffffffffffffffffffffffffffff169060200190929190803573ffffffffffffffffffffffffffffffffffffffff16906020019092919080359060200190929190505050611a4e565b005b34801561064d57600080fd5b5061067a6004803603602081101561066457600080fd5b8101908080359060200190929190505050611a6f565b60405180806020018a8152602001898152602001806020018881526020018773ffffffffffffffffffffffffffffffffffffffff1673ffffffffffffffffffffffffffffffffffffffff1681526020018673ffffffffffffffffffffffffffffffffffffffff1673ffffffffffffffffffffffffffffffffffffffff168152602001851515151581526020018415151515815260200183810383528c818151815260200191508051906020019080838360005b8381101561074857808201518184015260208101905061072d565b50505050905090810190601f1680156107755780820380516001836020036101000a031916815260200191505b50838103825289818151815260200191508051906020019080838360005b838110156107ae578082015181840152602081019050610793565b50505050905090810190601f1680156107db5780820380516001836020036101000a031916815260200191505b509b50505050505050505050505060405180910390f35b3480156107fe57600080fd5b5061082b6004803603602081101561081557600080fd5b8101908080359060200190929190505050611c56565b604051808273ffffffffffffffffffffffffffffffffffffffff1673ffffffffffffffffffffffffffffffffffffffff16815260200191505060405180910390f35b34801561087957600080fd5b506108bc6004803603602081101561089057600080fd5b81019080803573ffffffffffffffffffffffffffffffffffffffff169060200190929190505050611cd4565b6040518082815260200191505060405180910390f35b3480156108de57600080fd5b506108e7611d58565b6040518080602001828103825283818151815260200191508051906020019080838360005b8381101561092757808201518184015260208101905061090c565b50505050905090810190601f1680156109545780820380516001836020036101000a031916815260200191505b509250505060405180910390f35b34801561096e57600080fd5b5061099b6004803603602081101561098557600080fd5b8101908080359060200190929190505050611df6565b005b3480156109a957600080fd5b506109f8600480360360408110156109c057600080fd5b81019080803573ffffffffffffffffffffffffffffffffffffffff1690602001909291908035151590602001909291905050506122c5565b005b348015610a0657600080fd5b50610a0f612401565b6040518082815260200191505060405180910390f35b348015610a3157600080fd5b50610b3560048036036080811015610a4857600080fd5b81019080803573ffffffffffffffffffffffffffffffffffffffff169060200190929190803573ffffffffffffffffffffffffffffffffffffffff1690602001909291908035906020019092919080359060200190640100000000811115610aaf57600080fd5b820183602082011115610ac157600080fd5b80359060200191846001830284011164010000000083111715610ae357600080fd5b91908080601f016020809104026020016040519081016040528093929190818152602001838380828437600081840152601f19601f82011690508083019250505050505050919291929050505061240e565b005b348015610b4357600080fd5b50610b8660048036036020811015610b5a57600080fd5b81019080803573ffffffffffffffffffffffffffffffffffffffff169060200190929190505050612436565b6040518082815260200191505060405180910390f35b348015610ba857600080fd5b50610bd560048036036020811015610bbf57600080fd5b8101908080359060200190929190505050612482565b604051808381526020018273ffffffffffffffffffffffffffffffffffffffff1673ffffffffffffffffffffffffffffffffffffffff1681526020019250505060405180910390f35b348015610c2a57600080fd5b50610db9600480360360c0811015610c4157600080fd5b81019080803573ffffffffffffffffffffffffffffffffffffffff1690602001909291908035906020019092919080359060200190640100000000811115610c8857600080fd5b820183602082011115610c9a57600080fd5b80359060200191846001830284011164010000000083111715610cbc57600080fd5b91908080601f016020809104026020016040519081016040528093929190818152602001838380828437600081840152601f19601f82011690508083019250505050505050919291929080359060200190640100000000811115610d1f57600080fd5b820183602082011115610d3157600080fd5b80359060200191846001830284011164010000000083111715610d5357600080fd5b91908080601f016020809104026020016040519081016040528093929190818152602001838380828437600081840152601f19601f820116905080830192505050505050509192919290803590602001909291908035906020019092919050505061256b565b604051808215151515815260200191505060405180910390f35b348015610ddf57600080fd5b50610e0c60048036036020811015610df657600080fd5b8101908080359060200190929190505050612965565b005b348015610e1a57600080fd5b50610e7d60048036036040811015610e3157600080fd5b81019080803573ffffffffffffffffffffffffffffffffffffffff169060200190929190803573ffffffffffffffffffffffffffffffffffffffff169060200190929190505050612d15565b604051808215151515815260200191505060405180910390f35b348015610ea357600080fd5b50610ee660048036036020811015610eba57600080fd5b81019080803573ffffffffffffffffffffffffffffffffffffffff169060200190929190505050612da9565b6040518080602001828103825283818151815260200191508051906020019060200280838360005b83811015610f29578082015181840152602081019050610f0e565b505050509050019250505060405180910390f35b6000806000837bffffffffffffffffffffffffffffffffffffffffffffffffffffffff19167bffffffffffffffffffffffffffffffffffffffffffffffffffffffff1916815260200190815260200160002060009054906101000a900460ff169050919050565b60058054600181600116156101000203166002900480601f01602080910402602001604051908101604052809291908181526020018280546001816001161561010002031660029004801561103a5780601f1061100f5761010080835404028352916020019161103a565b820191906000526020600020905b81548152906001019060200180831161101d57829003601f168201915b505050505081565b600061104d82612e45565b151561105857600080fd5b6002600083815260200190815260200160002060009054906101000a900473ffffffffffffffffffffffffffffffffffffffff169050919050565b600061109e82611c56565b90508073ffffffffffffffffffffffffffffffffffffffff168373ffffffffffffffffffffffffffffffffffffffff16141515156110db57600080fd5b8073ffffffffffffffffffffffffffffffffffffffff163373ffffffffffffffffffffffffffffffffffffffff16148061111b575061111a8133612d15565b5b151561112657600080fd5b826002600084815260200190815260200160002060006101000a81548173ffffffffffffffffffffffffffffffffffffffff021916908373ffffffffffffffffffffffffffffffffffffffff160217905550818373ffffffffffffffffffffffffffffffffffffffff168273ffffffffffffffffffffffffffffffffffffffff167f8c5be1e5ebec7d5bd14f71427d1e84f3dd0314c0f7b2291e5b200ac8c7c3b92560405160405180910390a4505050565b6060600080606060008060008060006111ef6136a7565b60078b8154811015156111fe57fe5b90600052602060002090600702016101206040519081016040529081600082018054600181600116156101000203166002900480601f0160208091040260200160405190810160405280929190818152602001828054600181600116156101000203166002900480156112b25780601f10611287576101008083540402835291602001916112b2565b820191906000526020600020905b81548152906001019060200180831161129557829003601f168201915b505050505081526020016001820154815260200160028201548152602001600382018054600181600116156101000203166002900480601f0160208091040260200160405190810160405280929190818152602001828054600181600116156101000203166002900480156113685780601f1061133d57610100808354040283529160200191611368565b820191906000526020600020905b81548152906001019060200180831161134b57829003601f168201915b50505050508152602001600482015481526020016005820160009054906101000a900473ffffffffffffffffffffffffffffffffffffffff1673ffffffffffffffffffffffffffffffffffffffff1673ffffffffffffffffffffffffffffffffffffffff1681526020016006820160009054906101000a900473ffffffffffffffffffffffffffffffffffffffff1673ffffffffffffffffffffffffffffffffffffffff1673ffffffffffffffffffffffffffffffffffffffff1681526020016006820160149054906101000a900460ff161515151581526020016006820160159054906101000a900460ff1615151515815250509050806000015181602001518260400151836060015184608001518560c001518660a001518760e00151886101000151889850859550995099509950995099509950995099509950509193959799909294969850565b6114bd3382612eb7565b15156114c857600080fd5b6114d3838383612f4c565b505050565b60003490506114e56136a7565b6007838154811015156114f457fe5b90600052602060002090600702016101206040519081016040529081600082018054600181600116156101000203166002900480601f0160208091040260200160405190810160405280929190818152602001828054600181600116156101000203166002900480156115a85780601f1061157d576101008083540402835291602001916115a8565b820191906000526020600020905b81548152906001019060200180831161158b57829003601f168201915b505050505081526020016001820154815260200160028201548152602001600382018054600181600116156101000203166002900480601f01602080910402602001604051908101604052809291908181526020018280546001816001161561010002031660029004801561165e5780601f106116335761010080835404028352916020019161165e565b820191906000526020600020905b81548152906001019060200180831161164157829003601f168201915b50505050508152602001600482015481526020016005820160009054906101000a900473ffffffffffffffffffffffffffffffffffffffff1673ffffffffffffffffffffffffffffffffffffffff1673ffffffffffffffffffffffffffffffffffffffff1681526020016006820160009054906101000a900473ffffffffffffffffffffffffffffffffffffffff1673ffffffffffffffffffffffffffffffffffffffff1673ffffffffffffffffffffffffffffffffffffffff1681526020016006820160149054906101000a900460ff161515151581526020016006820160159054906101000a900460ff16151515158152505090503373ffffffffffffffffffffffffffffffffffffffff168160a0015173ffffffffffffffffffffffffffffffffffffffff16141561179257600080fd5b80602001514211156117a357600080fd5b6000600860008581526020019081526020016000208054905090506000826040015190506117cf613724565b600083111561187e5760086000878152602001908152602001600020600184038154811015156117fb57fe5b90600052602060002090600202016040805190810160405290816000820160009054906101000a900473ffffffffffffffffffffffffffffffffffffffff1673ffffffffffffffffffffffffffffffffffffffff1673ffffffffffffffffffffffffffffffffffffffff1681526020016001820154815250509050806020015191505b8185101561188b57600080fd5b60008311156118dd57806000015173ffffffffffffffffffffffffffffffffffffffff166108fc82602001519081150290604051600060405180830381858888f1935050505015156118dc57600080fd5b5b6118e5613724565b33816000019073ffffffffffffffffffffffffffffffffffffffff16908173ffffffffffffffffffffffffffffffffffffffff16815250508581602001818152505060086000888152602001908152602001600020819080600181540180825580915050906001820390600052602060002090600202016000909192909190915060008201518160000160006101000a81548173ffffffffffffffffffffffffffffffffffffffff021916908373ffffffffffffffffffffffffffffffffffffffff160217905550602082015181600101555050507f5762e6a7d331cd17a1761e94de3ea3b85e90ee6cdd9d1204e361cc650689d4633388604051808373ffffffffffffffffffffffffffffffffffffffff1673ffffffffffffffffffffffffffffffffffffffff1681526020018281526020019250505060405180910390a150505050505050565b600060086000838152602001908152602001600020805490509050919050565b611a6a838383602060405190810160405280600081525061240e565b505050565b600781815481101515611a7e57fe5b9060005260206000209060070201600091509050806000018054600181600116156101000203166002900480601f016020809104026020016040519081016040528092919081815260200182805460018160011615610100020316600290048015611b2a5780601f10611aff57610100808354040283529160200191611b2a565b820191906000526020600020905b815481529060010190602001808311611b0d57829003601f168201915b505050505090806001015490806002015490806003018054600181600116156101000203166002900480601f016020809104026020016040519081016040528092919081815260200182805460018160011615610100020316600290048015611bd45780601f10611ba957610100808354040283529160200191611bd4565b820191906000526020600020905b815481529060010190602001808311611bb757829003601f168201915b5050505050908060040154908060050160009054906101000a900473ffffffffffffffffffffffffffffffffffffffff16908060060160009054906101000a900473ffffffffffffffffffffffffffffffffffffffff16908060060160149054906101000a900460ff16908060060160159054906101000a900460ff16905089565b6000806001600084815260200190815260200160002060009054906101000a900473ffffffffffffffffffffffffffffffffffffffff169050600073ffffffffffffffffffffffffffffffffffffffff168173ffffffffffffffffffffffffffffffffffffffff1614151515611ccb57600080fd5b80915050919050565b60008073ffffffffffffffffffffffffffffffffffffffff168273ffffffffffffffffffffffffffffffffffffffff1614151515611d1157600080fd5b600360008373ffffffffffffffffffffffffffffffffffffffff1673ffffffffffffffffffffffffffffffffffffffff168152602001908152602001600020549050919050565b60068054600181600116156101000203166002900480601f016020809104026020016040519081016040528092919081815260200182805460018160011615610100020316600290048015611dee5780601f10611dc357610100808354040283529160200191611dee565b820191906000526020600020905b815481529060010190602001808311611dd157829003601f168201915b505050505081565b803373ffffffffffffffffffffffffffffffffffffffff16600782815481101515611e1d57fe5b906000526020600020906007020160050160009054906101000a900473ffffffffffffffffffffffffffffffffffffffff1673ffffffffffffffffffffffffffffffffffffffff16141515611e7157600080fd5b611e796136a7565b600783815481101515611e8857fe5b90600052602060002090600702016101206040519081016040529081600082018054600181600116156101000203166002900480601f016020809104026020016040519081016040528092919081815260200182805460018160011615610100020316600290048015611f3c5780601f10611f1157610100808354040283529160200191611f3c565b820191906000526020600020905b815481529060010190602001808311611f1f57829003601f168201915b505050505081526020016001820154815260200160028201548152602001600382018054600181600116156101000203166002900480601f016020809104026020016040519081016040528092919081815260200182805460018160011615610100020316600290048015611ff25780601f10611fc757610100808354040283529160200191611ff2565b820191906000526020600020905b815481529060010190602001808311611fd557829003601f168201915b50505050508152602001600482015481526020016005820160009054906101000a900473ffffffffffffffffffffffffffffffffffffffff1673ffffffffffffffffffffffffffffffffffffffff1673ffffffffffffffffffffffffffffffffffffffff1681526020016006820160009054906101000a900473ffffffffffffffffffffffffffffffffffffffff1673ffffffffffffffffffffffffffffffffffffffff1673ffffffffffffffffffffffffffffffffffffffff1681526020016006820160149054906101000a900460ff161515151581526020016006820160159054906101000a900460ff161515151581525050905060006008600085815260200190815260200160002080549050905060008111156121fd57612115613724565b600860008681526020019081526020016000206001830381548110151561213857fe5b90600052602060002090600202016040805190810160405290816000820160009054906101000a900473ffffffffffffffffffffffffffffffffffffffff1673ffffffffffffffffffffffffffffffffffffffff1673ffffffffffffffffffffffffffffffffffffffff1681526020016001820154815250509050806000015173ffffffffffffffffffffffffffffffffffffffff166108fc82602001519081150290604051600060405180830381858888f1935050505015156121fb57600080fd5b505b612215308360a001518460c0015185608001516131b1565b156122bf57600060078581548110151561222b57fe5b906000526020600020906007020160060160146101000a81548160ff0219169083151502179055507f39e6c898ce035bbacd9ba4f9753534f8c9f976e0ff70be83cfe887f235afa1d33385604051808373ffffffffffffffffffffffffffffffffffffffff1673ffffffffffffffffffffffffffffffffffffffff1681526020018281526020019250505060405180910390a15b50505050565b3373ffffffffffffffffffffffffffffffffffffffff168273ffffffffffffffffffffffffffffffffffffffff161415151561230057600080fd5b80600460003373ffffffffffffffffffffffffffffffffffffffff1673ffffffffffffffffffffffffffffffffffffffff16815260200190815260200160002060008473ffffffffffffffffffffffffffffffffffffffff1673ffffffffffffffffffffffffffffffffffffffff16815260200190815260200160002060006101000a81548160ff0219169083151502179055508173ffffffffffffffffffffffffffffffffffffffff163373ffffffffffffffffffffffffffffffffffffffff167f17307eab39ab6107e8899845ad3d59bd9653f200f220920489ca2b5937696c3183604051808215151515815260200191505060405180910390a35050565b6000600780549050905090565b6124198484846114b3565b6124258484848461336e565b151561243057600080fd5b50505050565b6000600960008373ffffffffffffffffffffffffffffffffffffffff1673ffffffffffffffffffffffffffffffffffffffff168152602001908152602001600020805490509050919050565b6000806000600860008581526020019081526020016000208054905090506000811115612564576124b1613724565b60086000868152602001908152602001600020600183038154811015156124d457fe5b90600052602060002090600202016040805190810160405290816000820160009054906101000a900473ffffffffffffffffffffffffffffffffffffffff1673ffffffffffffffffffffffffffffffffffffffff1673ffffffffffffffffffffffffffffffffffffffff168152602001600182015481525050905080602001518160000151935093505050612566565b505b915091565b6000868660008273ffffffffffffffffffffffffffffffffffffffff16636352211e836040518263ffffffff167c01000000000000000000000000000000000000000000000000000000000281526004018082815260200191505060206040518083038186803b1580156125de57600080fd5b505afa1580156125f2573d6000803e3d6000fd5b505050506040513d602081101561260857600080fd5b810190808051906020019092919050505090503073ffffffffffffffffffffffffffffffffffffffff168173ffffffffffffffffffffffffffffffffffffffff1614151561265557600080fd5b600060078054905090506126676136a7565b89816000018190525086816020018181525050878160400181815250508881606001819052508a8160800181815250508b8160c0019073ffffffffffffffffffffffffffffffffffffffff16908173ffffffffffffffffffffffffffffffffffffffff1681525050338160a0019073ffffffffffffffffffffffffffffffffffffffff16908173ffffffffffffffffffffffffffffffffffffffff168152505060018160e0019015159081151581525050600081610100019015159081151581525050600781908060018154018082558091505090600182039060005260206000209060070201600090919290919091506000820151816000019080519060200190612774929190613754565b50602082015181600101556040820151816002015560608201518160030190805190602001906127a5929190613754565b506080820151816004015560a08201518160050160006101000a81548173ffffffffffffffffffffffffffffffffffffffff021916908373ffffffffffffffffffffffffffffffffffffffff16021790555060c08201518160060160006101000a81548173ffffffffffffffffffffffffffffffffffffffff021916908373ffffffffffffffffffffffffffffffffffffffff16021790555060e08201518160060160146101000a81548160ff0219169083151502179055506101008201518160060160156101000a81548160ff021916908315150217905550505050600960003373ffffffffffffffffffffffffffffffffffffffff1673ffffffffffffffffffffffffffffffffffffffff1681526020019081526020016000208290806001815401808255809150509060018203906000526020600020016000909192909190915055507f3249a06bd478adf780bb7930214ad005e9cfa517d63221c0b77f27199d1a58b33383604051808373ffffffffffffffffffffffffffffffffffffffff1673ffffffffffffffffffffffffffffffffffffffff1681526020018281526020019250505060405180910390a150505050509695505050505050565b61296d6136a7565b60078281548110151561297c57fe5b90600052602060002090600702016101206040519081016040529081600082018054600181600116156101000203166002900480601f016020809104026020016040519081016040528092919081815260200182805460018160011615610100020316600290048015612a305780601f10612a0557610100808354040283529160200191612a30565b820191906000526020600020905b815481529060010190602001808311612a1357829003601f168201915b505050505081526020016001820154815260200160028201548152602001600382018054600181600116156101000203166002900480601f016020809104026020016040519081016040528092919081815260200182805460018160011615610100020316600290048015612ae65780601f10612abb57610100808354040283529160200191612ae6565b820191906000526020600020905b815481529060010190602001808311612ac957829003601f168201915b50505050508152602001600482015481526020016005820160009054906101000a900473ffffffffffffffffffffffffffffffffffffffff1673ffffffffffffffffffffffffffffffffffffffff1673ffffffffffffffffffffffffffffffffffffffff1681526020016006820160009054906101000a900473ffffffffffffffffffffffffffffffffffffffff1673ffffffffffffffffffffffffffffffffffffffff1673ffffffffffffffffffffffffffffffffffffffff1681526020016006820160149054906101000a900460ff161515151581526020016006820160159054906101000a900460ff16151515158152505090506000600860008481526020019081526020016000208054905090508160200151421015612c0957600080fd5b6000811415612c2057612c1b83611df6565b612d10565b612c28613724565b6008600085815260200190815260200160002060018303815481101515612c4b57fe5b90600052602060002090600202016040805190810160405290816000820160009054906101000a900473ffffffffffffffffffffffffffffffffffffffff1673ffffffffffffffffffffffffffffffffffffffff1673ffffffffffffffffffffffffffffffffffffffff16815260200160018201548152505090508260a0015173ffffffffffffffffffffffffffffffffffffffff166108fc82602001519081150290604051600060405180830381858888f193505050501515612d0e57600080fd5b505b505050565b6000600460008473ffffffffffffffffffffffffffffffffffffffff1673ffffffffffffffffffffffffffffffffffffffff16815260200190815260200160002060008373ffffffffffffffffffffffffffffffffffffffff1673ffffffffffffffffffffffffffffffffffffffff16815260200190815260200160002060009054906101000a900460ff16905092915050565b606080600960008473ffffffffffffffffffffffffffffffffffffffff1673ffffffffffffffffffffffffffffffffffffffff168152602001908152602001600020805480602002602001604051908101604052809291908181526020018280548015612e3557602002820191906000526020600020905b815481526020019060010190808311612e21575b5050505050905080915050919050565b6000806001600084815260200190815260200160002060009054906101000a900473ffffffffffffffffffffffffffffffffffffffff169050600073ffffffffffffffffffffffffffffffffffffffff168173ffffffffffffffffffffffffffffffffffffffff161415915050919050565b600080612ec383611c56565b90508073ffffffffffffffffffffffffffffffffffffffff168473ffffffffffffffffffffffffffffffffffffffff161480612f3257508373ffffffffffffffffffffffffffffffffffffffff16612f1a84611042565b73ffffffffffffffffffffffffffffffffffffffff16145b80612f435750612f428185612d15565b5b91505092915050565b8273ffffffffffffffffffffffffffffffffffffffff16612f6c82611c56565b73ffffffffffffffffffffffffffffffffffffffff16141515612f8e57600080fd5b600073ffffffffffffffffffffffffffffffffffffffff168273ffffffffffffffffffffffffffffffffffffffff1614151515612fca57600080fd5b612fd381613591565b6130266001600360008673ffffffffffffffffffffffffffffffffffffffff1673ffffffffffffffffffffffffffffffffffffffff1681526020019081526020016000205461365190919063ffffffff16565b600360008573ffffffffffffffffffffffffffffffffffffffff1673ffffffffffffffffffffffffffffffffffffffff168152602001908152602001600020819055506130bc6001600360008573ffffffffffffffffffffffffffffffffffffffff1673ffffffffffffffffffffffffffffffffffffffff1681526020019081526020016000205461367390919063ffffffff16565b600360008473ffffffffffffffffffffffffffffffffffffffff1673ffffffffffffffffffffffffffffffffffffffff16815260200190815260200160002081905550816001600083815260200190815260200160002060006101000a81548173ffffffffffffffffffffffffffffffffffffffff021916908373ffffffffffffffffffffffffffffffffffffffff160217905550808273ffffffffffffffffffffffffffffffffffffffff168473ffffffffffffffffffffffffffffffffffffffff167fddf252ad1be2c89b69c2b068fc378daa952ba7f163c4a11628f55a4df523b3ef60405160405180910390a4505050565b6000808390508073ffffffffffffffffffffffffffffffffffffffff1663095ea7b386856040518363ffffffff167c0100000000000000000000000000000000000000000000000000000000028152600401808373ffffffffffffffffffffffffffffffffffffffff1673ffffffffffffffffffffffffffffffffffffffff16815260200182815260200192505050600060405180830381600087803b15801561325a57600080fd5b505af115801561326e573d6000803e3d6000fd5b505050508073ffffffffffffffffffffffffffffffffffffffff166323b872dd8787866040518463ffffffff167c0100000000000000000000000000000000000000000000000000000000028152600401808473ffffffffffffffffffffffffffffffffffffffff1673ffffffffffffffffffffffffffffffffffffffff1681526020018373ffffffffffffffffffffffffffffffffffffffff1673ffffffffffffffffffffffffffffffffffffffff1681526020018281526020019350505050600060405180830381600087803b15801561334957600080fd5b505af115801561335d573d6000803e3d6000fd5b505050506001915050949350505050565b600061338f8473ffffffffffffffffffffffffffffffffffffffff16613694565b151561339e5760019050613589565b60008473ffffffffffffffffffffffffffffffffffffffff1663150b7a02338887876040518563ffffffff167c0100000000000000000000000000000000000000000000000000000000028152600401808573ffffffffffffffffffffffffffffffffffffffff1673ffffffffffffffffffffffffffffffffffffffff1681526020018473ffffffffffffffffffffffffffffffffffffffff1673ffffffffffffffffffffffffffffffffffffffff16815260200183815260200180602001828103825283818151815260200191508051906020019080838360005b8381101561349557808201518184015260208101905061347a565b50505050905090810190601f1680156134c25780820380516001836020036101000a031916815260200191505b5095505050505050602060405180830381600087803b1580156134e457600080fd5b505af11580156134f8573d6000803e3d6000fd5b505050506040513d602081101561350e57600080fd5b8101908080519060200190929190505050905063150b7a027c0100000000000000000000000000000000000000000000000000000000027bffffffffffffffffffffffffffffffffffffffffffffffffffffffff1916817bffffffffffffffffffffffffffffffffffffffffffffffffffffffff1916149150505b949350505050565b600073ffffffffffffffffffffffffffffffffffffffff166002600083815260200190815260200160002060009054906101000a900473ffffffffffffffffffffffffffffffffffffffff1673ffffffffffffffffffffffffffffffffffffffff1614151561364e5760006002600083815260200190815260200160002060006101000a81548173ffffffffffffffffffffffffffffffffffffffff021916908373ffffffffffffffffffffffffffffffffffffffff1602179055505b50565b600082821115151561366257600080fd5b600082840390508091505092915050565b600080828401905083811015151561368a57600080fd5b8091505092915050565b600080823b905060008111915050919050565b610120604051908101604052806060815260200160008152602001600081526020016060815260200160008152602001600073ffffffffffffffffffffffffffffffffffffffff168152602001600073ffffffffffffffffffffffffffffffffffffffff1681526020016000151581526020016000151581525090565b6040805190810160405280600073ffffffffffffffffffffffffffffffffffffffff168152602001600081525090565b828054600181600116156101000203166002900490600052602060002090601f016020900481019282601f1061379557805160ff19168380011785556137c3565b828001600101855582156137c3579182015b828111156137c25782518255916020019190600101906137a7565b5b5090506137d091906137d4565b5090565b6137f691905b808211156137f25760008160009055506001016137da565b5090565b9056fea165627a7a723058205f024dfbf16c8005b637e893b8de4c7c68aea487020753adf20500ec1eecab7c0029",
  "source": "pragma solidity >= 0.4.20 < 0.6.0;\n\nimport \"contracts/DeedRepository.sol\";\nimport \"openzeppelin-solidity/contracts/token/ERC721/ERC721.sol\";\n\ncontract AuctionRepository is ERC721{\n\n    string public name;\n    string public symbol;\n\n    Auction[] public auctions;\n\n    mapping(uint => Bid[]) auctionBids;\n    mapping(address => uint[]) auctionOwner;\n\n\n    struct Auction{\n        string name;\n        uint256 blockDeadline;\n        uint256 startPrice;\n        string metadata;\n        uint256 deedId;\n        address owner;\n        address deedRepositoryAddress;\n        bool active;\n        bool finalized;\n    }\n\n    struct Bid{\n        address from;\n        uint256 amount;\n    }\n\n\n    modifier isOwner(uint _auctionId){\n        require(auctions[_auctionId].owner == msg.sender);\n        _;\n    }\n\n    modifier contractIsDeedOwner(address _deedRepositoryAddress, uint256 _deedId){\n        address deedOwner = DeedRepository(_deedRepositoryAddress).ownerOf(_deedId);\n        require(deedOwner == address(this));\n        _;\n    }\n\n    constructor(string memory _name, string memory _symbol) public {\n          name = _name;\n          symbol = _symbol;\n    }\n\n    function() external{\n        revert();\n    }\n\n    //need to see replacement for constant\n    function getCount() public view returns(uint){\n        return auctions.length;\n    }\n\n    function getBidsCount(uint _auctionId) public view returns(uint){\n        return auctionBids[_auctionId].length;\n    }\n\n    function getActionsOf(address _owner) public view returns(uint[] memory) {\n        uint[] memory ownedActions = auctionOwner[_owner];\n        return ownedActions;\n    }\n\n    function getCurrentBid(uint _auctionId) public view returns(uint256, address) {\n        uint bidsLength = auctionBids[_auctionId].length;\n\n        if( bidsLength > 0 ) {\n            Bid memory lastBid = auctionBids[_auctionId][bidsLength - 1];\n            return (lastBid.amount, lastBid.from);\n        }\n       // return (0,\"0\");\n    }\n\n    function getAuctionsCountOfOwner(address _owner) public returns(uint) {\n        return auctionOwner[_owner].length;\n    }\n\n    function getAuctionById( uint _auctionId ) public view returns(\n        string memory name,\n        uint256 blockDeadline,\n        uint256 startPrice,\n        string memory metadata,\n        uint256 deedId,\n        address deedRepositoryAddress,\n        address owner,\n        bool active,\n        bool finalized\n        ) {\n\n        Auction memory auc = auctions[_auctionId];\n        return (\n            auc.name,\n            auc.blockDeadline,\n            auc.startPrice,\n            auc.metadata,\n            auc.deedId,\n            auc.deedRepositoryAddress,\n            auc.owner,\n            auc.active,\n            auc.finalized\n            );\n\n    }\n\n    function createAuction(address _deedRepositoryAddress,\n                            uint256 _deedId, string memory _auctionTitle,\n                            string memory _metadata, uint256 _startPrice,\n                            uint _blockDeadline)\n                            public contractIsDeedOwner(_deedRepositoryAddress, _deedId )\n                            returns(bool){\n                                uint aunctionId = auctions.length;\n                                Auction memory newAuction;\n                                newAuction.name = _auctionTitle;\n                                newAuction.blockDeadline = _blockDeadline;\n                                newAuction.startPrice = _startPrice;\n                                newAuction.metadata  = _metadata;\n                                newAuction.deedId = _deedId;\n                                newAuction.deedRepositoryAddress = _deedRepositoryAddress;\n                                newAuction.owner = msg.sender;\n                                newAuction.active = true;\n                                newAuction.finalized = false;\n\n                                auctions.push(newAuction);\n                                auctionOwner[msg.sender].push(aunctionId);\n                                emit AuctionCreated(msg.sender,aunctionId);\n}\n\nfunction approveAndTransfer(\n    address _from, address _to,\n    address _deedRepositoryAddress,\n    uint256 _deedId) internal returns(bool){\n        DeedRepository remoteContract = DeedRepository(_deedRepositoryAddress);\n        remoteContract.approve(_to, _deedId);\n        remoteContract.transferFrom(_from, _to, _deedId);\n        return true;\n    }\n\n  function cancelAuction(uint _auctionId) public isOwner(_auctionId) {\n      Auction memory myAuction = auctions[_auctionId];\n      uint bidsLength = auctionBids[_auctionId].length;\n\n        // if there are bids refund the last bid\n        if( bidsLength > 0 ) {\n            Bid memory lastBid = auctionBids[_auctionId][bidsLength - 1];\n            if(!address(uint160(lastBid.from)).send(lastBid.amount)) {\n                revert();\n            }\n        }\n\n        // approve and transfer from this contract to auction owner\n        if(approveAndTransfer(address(this), myAuction.owner, myAuction.deedRepositoryAddress, myAuction.deedId)){\n            auctions[_auctionId].active = false;\n            emit AuctionCanceled(msg.sender, _auctionId);\n        }\n    }\n\n\nfunction finalizeAuction(uint _auctionId) public {\n    Auction memory myAuction = auctions[_auctionId];\n    uint bidsLength = auctionBids[_auctionId].length;\n\n    if(block.timestamp < myAuction.blockDeadline) revert();\n\n    if(bidsLength == 0){\n        cancelAuction(_auctionId);\n    }else{\n        Bid memory lastBid = auctionBids[_auctionId][bidsLength - 1];\n        if(!address(uint160(myAuction.owner)).send(lastBid.amount)) {\n         revert();\n\n         if(approveAndTransfer(address(this), lastBid.from, myAuction.deedRepositoryAddress, myAuction.deedId)){\n                auctions[_auctionId].active = false;\n                auctions[_auctionId].finalized = true;\n                emit AuctionFinalized(msg.sender, _auctionId);\n            }\n    }\n}\n\n}\n\nfunction bidOnAuction(uint _auctionId) public payable{\n    uint256 ethAmountSent = msg.value;\n\n    Auction memory myAuction = auctions[_auctionId];\n    if(myAuction.owner == msg.sender) revert();\n    if(block.timestamp > myAuction.blockDeadline) revert();\n\n    uint bidsLength = auctionBids[_auctionId].length;\n    uint256 tempAmount = myAuction.startPrice;\n    Bid memory lastBid;\n\n    if(bidsLength > 0){\n        lastBid = auctionBids[_auctionId][bidsLength  - 1];\n        tempAmount = lastBid.amount;\n    }\n\n    if(ethAmountSent < tempAmount) revert();\n\n    if(bidsLength > 0){\n        if(!address(uint160(lastBid.from)).send(lastBid.amount)){\n            revert();\n        }\n\n    }\n\n    Bid memory newBid;\n    newBid.from = msg.sender;\n    newBid.amount = ethAmountSent;\n    auctionBids[_auctionId].push(newBid);\n    emit BidSuccess(msg.sender,_auctionId);\n\n}\n\n\n event BidSuccess(address _from , uint _auctionId);\n    event AuctionCreated(address _owner, uint _auctionId);\n    event AuctionCanceled(address _owner, uint _auctionId);\n    event AuctionFinalized(address _owner, uint _auctionId);\n\n}\n",
  "sourcePath": "C:/Users/James/Desktop/blockchains/full-smart-auction/contracts/AuctionRespository.sol",
  "compiler": {
    "name": "solc",
    "version": "0.5.0+commit.1d4f565a.Emscripten.clang"
  },
  "schemaVersion": "3.0.2",
  "updatedAt": "2019-03-14T19:07:24.041Z",
  "devdoc": {
    "methods": {
      "approve(address,uint256)": {
        "details": "Approves another address to transfer the given token ID The zero address indicates there is no approved address. There can only be one approved address per token at a given time. Can only be called by the token owner or an approved operator.",
        "params": {
          "to": "address to be approved for the given token ID",
          "tokenId": "uint256 ID of the token to be approved"
        }
      },
      "balanceOf(address)": {
        "details": "Gets the balance of the specified address",
        "params": {
          "owner": "address to query the balance of"
        },
        "return": "uint256 representing the amount owned by the passed address"
      },
      "getApproved(uint256)": {
        "details": "Gets the approved address for a token ID, or zero if no address set Reverts if the token ID does not exist.",
        "params": {
          "tokenId": "uint256 ID of the token to query the approval of"
        },
        "return": "address currently approved for the given token ID"
      },
      "isApprovedForAll(address,address)": {
        "details": "Tells whether an operator is approved by a given owner",
        "params": {
          "operator": "operator address which you want to query the approval of",
          "owner": "owner address which you want to query the approval of"
        },
        "return": "bool whether the given operator is approved by the given owner"
      },
      "ownerOf(uint256)": {
        "details": "Gets the owner of the specified token ID",
        "params": {
          "tokenId": "uint256 ID of the token to query the owner of"
        },
        "return": "owner address currently marked as the owner of the given token ID"
      },
      "safeTransferFrom(address,address,uint256)": {
        "details": "Safely transfers the ownership of a given token ID to another address If the target address is a contract, it must implement `onERC721Received`, which is called upon a safe transfer, and return the magic value `bytes4(keccak256(\"onERC721Received(address,address,uint256,bytes)\"))`; otherwise, the transfer is reverted.     * Requires the msg sender to be the owner, approved, or operator",
        "params": {
          "from": "current owner of the token",
          "to": "address to receive the ownership of the given token ID",
          "tokenId": "uint256 ID of the token to be transferred"
        }
      },
      "safeTransferFrom(address,address,uint256,bytes)": {
        "details": "Safely transfers the ownership of a given token ID to another address If the target address is a contract, it must implement `onERC721Received`, which is called upon a safe transfer, and return the magic value `bytes4(keccak256(\"onERC721Received(address,address,uint256,bytes)\"))`; otherwise, the transfer is reverted. Requires the msg sender to be the owner, approved, or operator",
        "params": {
          "_data": "bytes data to send along with a safe transfer check",
          "from": "current owner of the token",
          "to": "address to receive the ownership of the given token ID",
          "tokenId": "uint256 ID of the token to be transferred"
        }
      },
      "setApprovalForAll(address,bool)": {
        "details": "Sets or unsets the approval of a given operator An operator is allowed to transfer all tokens of the sender on their behalf",
        "params": {
          "approved": "representing the status of the approval to be set",
          "to": "operator address to set the approval"
        }
      },
      "supportsInterface(bytes4)": {
        "details": "implement supportsInterface(bytes4) using a lookup table"
      },
      "transferFrom(address,address,uint256)": {
        "details": "Transfers the ownership of a given token ID to another address Usage of this method is discouraged, use `safeTransferFrom` whenever possible Requires the msg sender to be the owner, approved, or operator",
        "params": {
          "from": "current owner of the token",
          "to": "address to receive the ownership of the given token ID",
          "tokenId": "uint256 ID of the token to be transferred"
        }
      }
    }
  },
  "userdoc": {
    "methods": {}
  }
}