{
  "contractName": "Destructible",
  "abi": [
    {
      "constant": false,
      "inputs": [],
      "name": "renounceOwnership",
      "outputs": [],
      "payable": false,
      "stateMutability": "nonpayable",
      "type": "function"
    },
    {
      "constant": true,
      "inputs": [],
      "name": "owner",
      "outputs": [
        {
          "name": "",
          "type": "address"
        }
      ],
      "payable": false,
      "stateMutability": "view",
      "type": "function"
    },
    {
      "constant": true,
      "inputs": [],
      "name": "isOwner",
      "outputs": [
        {
          "name": "",
          "type": "bool"
        }
      ],
      "payable": false,
      "stateMutability": "view",
      "type": "function"
    },
    {
      "constant": false,
      "inputs": [
        {
          "name": "newOwner",
          "type": "address"
        }
      ],
      "name": "transferOwnership",
      "outputs": [],
      "payable": false,
      "stateMutability": "nonpayable",
      "type": "function"
    },
    {
      "anonymous": false,
      "inputs": [
        {
          "indexed": true,
          "name": "previousOwner",
          "type": "address"
        },
        {
          "indexed": true,
          "name": "newOwner",
          "type": "address"
        }
      ],
      "name": "OwnershipTransferred",
      "type": "event"
    },
    {
      "constant": false,
      "inputs": [],
      "name": "destroy",
      "outputs": [],
      "payable": false,
      "stateMutability": "nonpayable",
      "type": "function"
    },
    {
      "constant": false,
      "inputs": [
        {
          "name": "_recipient",
          "type": "address"
        }
      ],
      "name": "destroyAndSend",
      "outputs": [],
      "payable": false,
      "stateMutability": "nonpayable",
      "type": "function"
    }
  ],
  "bytecode": "0x6080604052336000806101000a81548173ffffffffffffffffffffffffffffffffffffffff021916908373ffffffffffffffffffffffffffffffffffffffff1602179055506000809054906101000a900473ffffffffffffffffffffffffffffffffffffffff1673ffffffffffffffffffffffffffffffffffffffff16600073ffffffffffffffffffffffffffffffffffffffff167f8be0079c531659141344cd1fd0a4f28419497f9722a3daafe3b4186f6b6457e060405160405180910390a36104c9806100cf6000396000f3fe608060405260043610610078576000357c0100000000000000000000000000000000000000000000000000000000900463ffffffff168063715018a61461007d57806383197ef0146100945780638da5cb5b146100ab5780638f32d59b14610102578063f2fde38b14610131578063f5074f4114610182575b600080fd5b34801561008957600080fd5b506100926101d3565b005b3480156100a057600080fd5b506100a96102a5565b005b3480156100b757600080fd5b506100c06102d8565b604051808273ffffffffffffffffffffffffffffffffffffffff1673ffffffffffffffffffffffffffffffffffffffff16815260200191505060405180910390f35b34801561010e57600080fd5b50610117610301565b604051808215151515815260200191505060405180910390f35b34801561013d57600080fd5b506101806004803603602081101561015457600080fd5b81019080803573ffffffffffffffffffffffffffffffffffffffff169060200190929190505050610358565b005b34801561018e57600080fd5b506101d1600480360360208110156101a557600080fd5b81019080803573ffffffffffffffffffffffffffffffffffffffff169060200190929190505050610377565b005b6101db610301565b15156101e657600080fd5b600073ffffffffffffffffffffffffffffffffffffffff166000809054906101000a900473ffffffffffffffffffffffffffffffffffffffff1673ffffffffffffffffffffffffffffffffffffffff167f8be0079c531659141344cd1fd0a4f28419497f9722a3daafe3b4186f6b6457e060405160405180910390a360008060006101000a81548173ffffffffffffffffffffffffffffffffffffffff021916908373ffffffffffffffffffffffffffffffffffffffff160217905550565b6102ad610301565b15156102b857600080fd5b6102c06102d8565b73ffffffffffffffffffffffffffffffffffffffff16ff5b60008060009054906101000a900473ffffffffffffffffffffffffffffffffffffffff16905090565b60008060009054906101000a900473ffffffffffffffffffffffffffffffffffffffff1673ffffffffffffffffffffffffffffffffffffffff163373ffffffffffffffffffffffffffffffffffffffff1614905090565b610360610301565b151561036b57600080fd5b610374816103a3565b50565b61037f610301565b151561038a57600080fd5b8073ffffffffffffffffffffffffffffffffffffffff16ff5b600073ffffffffffffffffffffffffffffffffffffffff168173ffffffffffffffffffffffffffffffffffffffff16141515156103df57600080fd5b8073ffffffffffffffffffffffffffffffffffffffff166000809054906101000a900473ffffffffffffffffffffffffffffffffffffffff1673ffffffffffffffffffffffffffffffffffffffff167f8be0079c531659141344cd1fd0a4f28419497f9722a3daafe3b4186f6b6457e060405160405180910390a3806000806101000a81548173ffffffffffffffffffffffffffffffffffffffff021916908373ffffffffffffffffffffffffffffffffffffffff1602179055505056fea165627a7a72305820e0db95f92babed4fac1c9799d72a15f13634ef9df6f95f48e678876f1968c5d60029",
  "source": "pragma solidity 0.5.0;\n\nimport \"../ownership/Ownable.sol\";\n\n/**\n * @title Destructible\n * @dev Base contract that can be destroyed by owner. All funds in contract will be sent to the owner.\n */\ncontract Destructible is Ownable {\n  /**\n   * @dev Transfers the current balance to the owner and terminates the contract.\n   */\n  function destroy () public onlyOwner {\n    selfdestruct(owner());\n  }\n\n  function destroyAndSend (address payable _recipient) public onlyOwner {\n    selfdestruct(_recipient);\n  }\n}\n",
  "sourcePath": "C:\\Users\\James\\Desktop\\blockchains\\full-smart-auction\\contracts\\zeppelin\\lifecycle\\Destructible.sol",
  "compiler": {
    "name": "solc",
    "version": "0.5.0+commit.1d4f565a.Emscripten.clang"
  },
  "schemaVersion": "3.0.2",
  "updatedAt": "2019-03-14T19:06:27.690Z",
  "devdoc": {
    "details": "Base contract that can be destroyed by owner. All funds in contract will be sent to the owner.",
    "methods": {
      "destroy()": {
        "details": "Transfers the current balance to the owner and terminates the contract."
      },
      "isOwner()": {
        "return": "true if `msg.sender` is the owner of the contract."
      },
      "owner()": {
        "return": "the address of the owner."
      },
      "renounceOwnership()": {
        "details": "Allows the current owner to relinquish control of the contract."
      },
      "transferOwnership(address)": {
        "details": "Allows the current owner to transfer control of the contract to a newOwner.",
        "params": {
          "newOwner": "The address to transfer ownership to."
        }
      }
    },
    "title": "Destructible"
  },
  "userdoc": {
    "methods": {
      "renounceOwnership()": {
        "notice": "Renouncing to ownership will leave the contract without an owner. It will not be possible to call the functions with the `onlyOwner` modifier anymore."
      }
    }
  }
}