{
  "contractName": "Setup",
  "abi": [
    {
      "constant": false,
      "inputs": [],
      "name": "renounceOwnership",
      "outputs": [],
      "payable": false,
      "stateMutability": "nonpayable",
      "type": "function",
      "signature": "0x715018a6"
    },
    {
      "constant": false,
      "inputs": [],
      "name": "destroy",
      "outputs": [],
      "payable": false,
      "stateMutability": "nonpayable",
      "type": "function",
      "signature": "0x83197ef0"
    },
    {
      "constant": true,
      "inputs": [],
      "name": "owner",
      "outputs": [
        {
          "name": "",
          "type": "address"
        }
      ],
      "payable": false,
      "stateMutability": "view",
      "type": "function",
      "signature": "0x8da5cb5b"
    },
    {
      "constant": true,
      "inputs": [],
      "name": "isOwner",
      "outputs": [
        {
          "name": "",
          "type": "bool"
        }
      ],
      "payable": false,
      "stateMutability": "view",
      "type": "function",
      "signature": "0x8f32d59b"
    },
    {
      "constant": true,
      "inputs": [],
      "name": "dbAddress",
      "outputs": [
        {
          "name": "",
          "type": "address"
        }
      ],
      "payable": false,
      "stateMutability": "view",
      "type": "function",
      "signature": "0x91e06b6d"
    },
    {
      "constant": false,
      "inputs": [
        {
          "name": "newOwner",
          "type": "address"
        }
      ],
      "name": "transferOwnership",
      "outputs": [],
      "payable": false,
      "stateMutability": "nonpayable",
      "type": "function",
      "signature": "0xf2fde38b"
    },
    {
      "constant": false,
      "inputs": [
        {
          "name": "_recipient",
          "type": "address"
        }
      ],
      "name": "destroyAndSend",
      "outputs": [],
      "payable": false,
      "stateMutability": "nonpayable",
      "type": "function",
      "signature": "0xf5074f41"
    },
    {
      "inputs": [
        {
          "name": "_dbAddress",
          "type": "address"
        }
      ],
      "payable": false,
      "stateMutability": "nonpayable",
      "type": "constructor",
      "signature": "constructor"
    },
    {
      "anonymous": false,
      "inputs": [
        {
          "indexed": true,
          "name": "previousOwner",
          "type": "address"
        },
        {
          "indexed": true,
          "name": "newOwner",
          "type": "address"
        }
      ],
      "name": "OwnershipTransferred",
      "type": "event",
      "signature": "0x8be0079c531659141344cd1fd0a4f28419497f9722a3daafe3b4186f6b6457e0"
    },
    {
      "constant": false,
      "inputs": [],
      "name": "setConfig",
      "outputs": [],
      "payable": false,
      "stateMutability": "nonpayable",
      "type": "function",
      "signature": "0x8b673e7a"
    }
  ],
  "bytecode": "0x608060405234801561001057600080fd5b50604051602080610aae8339810180604052602081101561003057600080fd5b8101908080519060200190929190505050336000806101000a81548173ffffffffffffffffffffffffffffffffffffffff021916908373ffffffffffffffffffffffffffffffffffffffff1602179055506000809054906101000a900473ffffffffffffffffffffffffffffffffffffffff1673ffffffffffffffffffffffffffffffffffffffff16600073ffffffffffffffffffffffffffffffffffffffff167f8be0079c531659141344cd1fd0a4f28419497f9722a3daafe3b4186f6b6457e060405160405180910390a3600073ffffffffffffffffffffffffffffffffffffffff168173ffffffffffffffffffffffffffffffffffffffff161415151561013957600080fd5b80600160006101000a81548173ffffffffffffffffffffffffffffffffffffffff021916908373ffffffffffffffffffffffffffffffffffffffff160217905550506109248061018a6000396000f3fe60806040526004361061008e576000357c0100000000000000000000000000000000000000000000000000000000900463ffffffff168063715018a61461009357806383197ef0146100aa5780638b673e7a146100c15780638da5cb5b146100d85780638f32d59b1461012f57806391e06b6d1461015e578063f2fde38b146101b5578063f5074f4114610206575b600080fd5b34801561009f57600080fd5b506100a8610257565b005b3480156100b657600080fd5b506100bf610329565b005b3480156100cd57600080fd5b506100d661035c565b005b3480156100e457600080fd5b506100ed61070d565b604051808273ffffffffffffffffffffffffffffffffffffffff1673ffffffffffffffffffffffffffffffffffffffff16815260200191505060405180910390f35b34801561013b57600080fd5b50610144610736565b604051808215151515815260200191505060405180910390f35b34801561016a57600080fd5b5061017361078d565b604051808273ffffffffffffffffffffffffffffffffffffffff1673ffffffffffffffffffffffffffffffffffffffff16815260200191505060405180910390f35b3480156101c157600080fd5b50610204600480360360208110156101d857600080fd5b81019080803573ffffffffffffffffffffffffffffffffffffffff1690602001909291905050506107b3565b005b34801561021257600080fd5b506102556004803603602081101561022957600080fd5b81019080803573ffffffffffffffffffffffffffffffffffffffff1690602001909291905050506107d2565b005b61025f610736565b151561026a57600080fd5b600073ffffffffffffffffffffffffffffffffffffffff166000809054906101000a900473ffffffffffffffffffffffffffffffffffffffff1673ffffffffffffffffffffffffffffffffffffffff167f8be0079c531659141344cd1fd0a4f28419497f9722a3daafe3b4186f6b6457e060405160405180910390a360008060006101000a81548173ffffffffffffffffffffffffffffffffffffffff021916908373ffffffffffffffffffffffffffffffffffffffff160217905550565b610331610736565b151561033c57600080fd5b61034461070d565b73ffffffffffffffffffffffffffffffffffffffff16ff5b610364610736565b151561036f57600080fd5b600160009054906101000a900473ffffffffffffffffffffffffffffffffffffffff1673ffffffffffffffffffffffffffffffffffffffff16633562fd2060405180807f636f6e6669672f6d61782d757365722d6e616d652d6c656e6774680000000000815250601b019050604051809103902060326040518363ffffffff167c01000000000000000000000000000000000000000000000000000000000281526004018083815260200182815260200192505050600060405180830381600087803b15801561043e57600080fd5b505af1158015610452573d6000803e3d6000fd5b50505050600160009054906101000a900473ffffffffffffffffffffffffffffffffffffffff1673ffffffffffffffffffffffffffffffffffffffff16633562fd2060405180807f636f6e6669672f6d696e2d757365722d6e616d652d6c656e6774680000000000815250601b019050604051809103902060026040518363ffffffff167c01000000000000000000000000000000000000000000000000000000000281526004018083815260200182815260200192505050600060405180830381600087803b15801561052557600080fd5b505af1158015610539573d6000803e3d6000fd5b50505050600160009054906101000a900473ffffffffffffffffffffffffffffffffffffffff1673ffffffffffffffffffffffffffffffffffffffff16633562fd2060405180807f636f6e6669672f6d61782d757365722d656d61696c2d6c656e67746800000000815250601c019050604051809103902060506040518363ffffffff167c01000000000000000000000000000000000000000000000000000000000281526004018083815260200182815260200192505050600060405180830381600087803b15801561060c57600080fd5b505af1158015610620573d6000803e3d6000fd5b50505050600160009054906101000a900473ffffffffffffffffffffffffffffffffffffffff1673ffffffffffffffffffffffffffffffffffffffff16633562fd2060405180807f636f6e6669672f6d696e2d757365722d656d61696c2d6c656e67746800000000815250601c019050604051809103902060006040518363ffffffff167c01000000000000000000000000000000000000000000000000000000000281526004018083815260200182815260200192505050600060405180830381600087803b1580156106f357600080fd5b505af1158015610707573d6000803e3d6000fd5b50505050565b60008060009054906101000a900473ffffffffffffffffffffffffffffffffffffffff16905090565b60008060009054906101000a900473ffffffffffffffffffffffffffffffffffffffff1673ffffffffffffffffffffffffffffffffffffffff163373ffffffffffffffffffffffffffffffffffffffff1614905090565b600160009054906101000a900473ffffffffffffffffffffffffffffffffffffffff1681565b6107bb610736565b15156107c657600080fd5b6107cf816107fe565b50565b6107da610736565b15156107e557600080fd5b8073ffffffffffffffffffffffffffffffffffffffff16ff5b600073ffffffffffffffffffffffffffffffffffffffff168173ffffffffffffffffffffffffffffffffffffffff161415151561083a57600080fd5b8073ffffffffffffffffffffffffffffffffffffffff166000809054906101000a900473ffffffffffffffffffffffffffffffffffffffff1673ffffffffffffffffffffffffffffffffffffffff167f8be0079c531659141344cd1fd0a4f28419497f9722a3daafe3b4186f6b6457e060405160405180910390a3806000806101000a81548173ffffffffffffffffffffffffffffffffffffffff021916908373ffffffffffffffffffffffffffffffffffffffff1602179055505056fea165627a7a72305820f31e29ad3bf7149e9ed6ecd67e51c29f742d901403c233280363550eecda87180029",
  "source": "pragma solidity 0.5.0;\n\nimport \"./DB.sol\";\n\n/**\n * The Setup contract contains configuration logic\n */\ncontract Setup is Destructible {\n  address public dbAddress;\n\n  constructor (address _dbAddress) public {\n    require(_dbAddress != address(0x0));\n    dbAddress = _dbAddress;\n  }\n\n  function setConfig ()\n    external\n    onlyOwner\n  {\n    DB(dbAddress).setUIntValue(keccak256('config/max-user-name-length'), 50);\n    DB(dbAddress).setUIntValue(keccak256('config/min-user-name-length'), 2);\n    DB(dbAddress).setUIntValue(keccak256('config/max-user-email-length'), 80);\n    DB(dbAddress).setUIntValue(keccak256('config/min-user-email-length'), 0);\n  }\n}\n",
  "sourcePath": "C:/Users/James/Desktop/blockchains/full-smart-auction/contracts/Setup.sol",
  "compiler": {
    "name": "solc",
    "version": "0.5.0+commit.1d4f565a.Emscripten.clang"
  },
  "schemaVersion": "3.0.2",
  "updatedAt": "2019-03-14T19:07:17.506Z",
  "devdoc": {
    "methods": {
      "destroy()": {
        "details": "Transfers the current balance to the owner and terminates the contract."
      },
      "isOwner()": {
        "return": "true if `msg.sender` is the owner of the contract."
      },
      "owner()": {
        "return": "the address of the owner."
      },
      "renounceOwnership()": {
        "details": "Allows the current owner to relinquish control of the contract."
      },
      "transferOwnership(address)": {
        "details": "Allows the current owner to transfer control of the contract to a newOwner.",
        "params": {
          "newOwner": "The address to transfer ownership to."
        }
      }
    }
  },
  "userdoc": {
    "methods": {
      "renounceOwnership()": {
        "notice": "Renouncing to ownership will leave the contract without an owner. It will not be possible to call the functions with the `onlyOwner` modifier anymore."
      }
    },
    "notice": "The Setup contract contains configuration logic"
  }
}